:100000000C9474000C9495000C9495000C9495003D
:100010000C9495000C9495000C9495000C9495000C
:100020000C9495000C9495000C9495000C949500FC
:100030000C9495000C9495000C9495000C949500EC
:100040000C9495000C9495000C9495000C949500DC
:100050000C9495000C9495000C9495000C949500CC
:100060000C9495000C9495000C9495000C949500BC
:100070000C9495000C9495000C9495000C949500AC
:100080000C9495000C9495000C9495000C9495009C
:100090000C9495000C9495000C9495000C9495008C
:1000A0000C9495000C9495000C9495000C9495007C
:1000B0000C9495000C9495000C9495000C9495006C
:1000C0000C9495000C9495000C9495000C9495005C
:1000D0000C9495000C9495000C9495000C9495004C
:1000E0000C9495000C94970011241FBECFEFD1E221
:1000F000DEBFCDBF00E00CBF12E0A0E0B2E0ECE557
:10010000F2E000E00BBF02C007900D92AE31B107E4
:10011000D9F722E0AEE1B2E001C01D92A432B207ED
:10012000E1F70E94EA000C942C010C9400008A3044
:1001300049F09091C00095FFFCCF8093C60080E00D
:1001400090E008959091C00095FFFCCF9DE09093C2
:10015000C600EFCF9093C5008093C40086E08093E3
:10016000C20088E98093C10008959091C00095FF76
:10017000FCCF8093C60008958091C00087FFFCCF1C
:100180008091C60008958091C000881F8827881F2D
:100190000895FC012081222351F031969091C000F6
:1001A00095FFFCCF2093C60021912111F7CF089530
:1001B00080E092E090932102809320021092C5008B
:1001C00082E38093C40086E08093C20088E9809334
:1001D000C10008950E94D8008098889A8EE092E02D
:1001E0000E94FC002FEF89E698E12150804090406A
:1001F000E1F700C00000F2CF0F931F93CF93DF937E
:10020000E0912002F0912102238121FF1BC08C018B
:10021000D0E0C0E0F80181918F01609120027091DF
:100220002102DB011896ED91FC911997882331F09A
:100230001995892B79F3DFEFCFEFECCF8AE0199591
:10024000892B19F08FEF9FEF02C08D2F9C2FDF912C
:0C025000CF911F910F910895F894FFCFFB
:10025C000000000200000000970000000000736F17
:0E026C006E6F20756E6120424F4152440000BB
:00000001FF
