:100000000C9474000C9495000C9495000C9495003D
:100010000C9495000C9495000C9495000C9495000C
:100020000C9495000C9495000C9495000C949500FC
:100030000C9495000C9495000C9495000C949500EC
:100040000C9495000C9495000C9495000C949500DC
:100050000C9495000C9495000C9495000C949500CC
:100060000C9495000C9495000C9495000C949500BC
:100070000C9495000C9495000C9495000C949500AC
:100080000C9495000C9495000C9495000C9495009C
:100090000C9495000C9495000C9495000C9495008C
:1000A0000C9495000C9495000C9495000C9495007C
:1000B0000C9495000C9495000C9495000C9495006C
:1000C0000C9495000C9495000C9495000C9495005C
:1000D0000C9495000C9495000C9495000C9495004C
:1000E0000C9495000C94970011241FBECFEFD1E221
:1000F000DEBFCDBF00E00CBF12E0A0E0B2E0E2ED59
:10010000F2E000E00BBF02C007900D92AE30B107E5
:10011000D9F722E0AEE0B2E001C01D92A431B207EF
:10012000E1F70E94EA000C9467010C9400008A3009
:1001300049F09091C00095FFFCCF8093C60080E00D
:1001400090E008959091C00095FFFCCF9DE09093C2
:10015000C600EFCF9093C5008093C40086E08093E3
:10016000C20088E98093C10008959091C00095FF76
:10017000FCCF8093C60008958091C00087FFFCCF1C
:100180008091C60008958091C000881F8827881F2D
:100190000895FC012081222351F031969091C000F6
:1001A00095FFFCCF2093C60021912111F7CF089530
:1001B00080E092E090931102809310021092C500AB
:1001C00082E38093C40086E08093C20088E9809334
:1001D000C10008950E94D8008AEA90E00E9425019B
:1001E0002FEF83ED90E3215080409040E1F700C075
:1001F00000008BEB90E00E9425012FEF83ED90E350
:10020000215080409040E1F700C0000085E090E080
:100210000E9425012FEF83ED90E321508040904014
:10022000E1F700C0000086E090E00E9425018BEB22
:1002300090E00E9425012FEF83ED90E32150804054
:100240009040E1F700C00000C7CF609110027091AC
:1002500011020C942B010F931F93CF93DF93FB019B
:10026000238121FD03C08FEF9FEF2CC022FF16C01A
:1002700046815781248135814217530744F4A08178
:10028000B1819D012F5F3F4F318320838C93268165
:1002900037812F5F3F4F3783268314C08B01EC01DA
:1002A000FB010084F185E02D1995892BE1F6D80139
:1002B00016968D919C911797019617969C938E9305
:1002C0001697CE01DF91CF911F910F910895F89469
:0202D000FFCF5E
:0E02D200000000020000000097000000000085
:00000001FF
