:100000000C9474000C9495000C9495000C9495003D
:100010000C9495000C9495000C9495000C9495000C
:100020000C9495000C9495000C9495000C949500FC
:100030000C9495000C9495000C9495000C949500EC
:100040000C9495000C9495000C9495000C949500DC
:100050000C9495000C9495000C9495000C949500CC
:100060000C9495000C9495000C9495000C949500BC
:100070000C9495000C9495000C9495000C949500AC
:100080000C9495000C9495000C9495000C9495009C
:100090000C9495000C9495000C9495000C9495008C
:1000A0000C9495000C9495000C9495000C9495007C
:1000B0000C9495000C9495000C9495000C9495006C
:1000C0000C9495000C9495000C9495000C9495005C
:1000D0000C9495000C9495000C9495000C9495004C
:1000E0000C9495000C94970011241FBECFEFD1E221
:1000F000DEBFCDBF00E00CBF12E0A0E0B2E0EEE05A
:10010000F5E000E00BBF02C007900D92A431B107EB
:10011000D9F722E0A4E1B2E001C01D92AE31B207EE
:10012000E1F70E94EA000C9485020C9400008A30EA
:1001300049F09091C00095FFFCCF8093C60080E00D
:1001400090E008959091C00095FFFCCF9DE09093C2
:10015000C600EFCF9093C5008093C40086E08093E3
:10016000C20088E98093C10008959091C00095FF76
:10017000FCCF8093C60008958091C00087FFFCCF1C
:100180008091C60008958091C000881F8827881F2D
:100190000895FC012081222351F031969091C000F6
:1001A00095FFFCCF2093C60021912111F7CF089530
:1001B00080E092E090931B0280931A021092C50097
:1001C00082E38093C40086E08093C20088E9809334
:1001D000C10008950E94D80082E090E00E942201B0
:1001E00025E0FC01208326E021838AEA90E00E943A
:1001F00043028BEB90E00E94430285E090E00E9476
:100200004302FFEF23ED80E3F15020408040E1F70F
:1002100000C000008AEA90E00E9443028BEB90E06D
:100220000E94430286E090E00E9443029FEFE3EDCC
:10023000F0E39150E040F040E1F700C0000080E0C2
:1002400090E008950F931F93CF93DF938230910531
:1002500010F482E090E0E0911602F091170220E0A5
:1002600030E0A0E0B0E0309719F140815181028187
:10027000138148175907C8F08417950769F4109738
:1002800031F012960C93129713961C9327C000938B
:1002900016021093170222C02115310519F04217DA
:1002A000530718F49A01BD01EF01DF01F801DBCF1C
:1002B00021153105F9F0281B390B2430310580F464
:1002C0008A819B816115710521F0FB0193838283F3
:1002D00004C09093170280931602FE01329644C028
:1002E000FE01E20FF31F819391932250310939836C
:1002F00028833AC02091140230911502232B41F437
:1003000020911002309111023093150220931402B3
:1003100020910E0230910F022115310541F42DB7C5
:100320003EB74091120250911302241B350BE0910D
:100330001402F0911502E217F307A0F42E1B3F0BF5
:100340002817390778F0AC014E5F5F4F2417350747
:1003500048F04E0F5F1F5093150240931402819393
:10036000919302C0E0E0F0E0CF01DF91CF911F91C7
:100370000F910895CF93DF93009709F481C0FC019A
:10038000329713821282A0911602B0911702109731
:1003900081F420813181820F931F209114023091CA
:1003A00015022817390751F5F0931502E09314024E
:1003B00067C0ED0120E030E0CE17DF0740F44A814E
:1003C0005B819E0141155105F1F0EA01F5CFD38320
:1003D000C28340815181840F951FC817D90759F4F2
:1003E00088819981840F951F0296918380838A81E9
:1003F0009B81938382832115310529F4F0931702A1
:10040000E09316023DC0E901FB83EA8349915991CB
:10041000C40FD51FEC17FD0761F480819181840F13
:10042000951F0296E90199838883828193819B833A
:100430008A83E0E0F0E012968D919C9113970097EB
:1004400019F0FD01DC01F7CF8D919C9111979D0171
:100450002E5F3F4F820F931F20911402309115029F
:100460002817390769F4309729F41092170210926F
:10047000160202C013821282B0931502A0931402D6
:10048000DF91CF91089560911A0270911B020C9434
:1004900049020F931F93CF93DF93FB01238121FD2B
:1004A00003C08FEF9FEF2CC022FF16C046815781FB
:1004B000248135814217530744F4A081B1819D0105
:1004C0002F5F3F4F318320838C93268137812F5FAD
:1004D0003F4F3783268314C08B01EC01FB0100845E
:1004E000F185E02D1995892BE1F6D80116968D91AD
:1004F0009C911797019617969C938E931697CE0111
:0E050000DF91CF911F910F910895F894FFCFD6
:10050E000000000200000000970000000000000044
:04051E001E02200099
:00000001FF
