:100000000C9474000C9495000C9495000C9495003D
:100010000C9495000C9495000C9495000C9495000C
:100020000C9495000C9495000C9495000C949500FC
:100030000C9495000C9495000C9495000C949500EC
:100040000C9495000C9495000C9495000C949500DC
:100050000C9495000C9495000C9495000C949500CC
:100060000C9495000C9495000C9495000C949500BC
:100070000C9495000C9495000C9495000C949500AC
:100080000C9495000C9495000C9495000C9495009C
:100090000C9495000C9495000C9495000C9495008C
:1000A0000C9495000C9495000C9495000C9495007C
:1000B0000C9495000C9495000C9495000C9495006C
:1000C0000C9495000C9495000C9495000C9495005C
:1000D0000C9495000C9495000C9495000C9495004C
:1000E0000C9495000C94AD0011241FBECFEFD1E20B
:1000F000DEBFCDBF00E00CBF12E0A0E0B2E0E2E85E
:10010000F3E000E00BBF02C007900D92AE30B107E4
:10011000D9F722E0AEE0B2E001C01D92A431B207EF
:10012000E1F70E9400010C94BF010C940000CF93F2
:10013000DF93FC01C081D181828190E00E947D012A
:100140008D2F90E00E947D018C2F90E00E947D0118
:1001500080E090E0DF91CF9108958A3049F090914E
:10016000C00095FFFCCF8093C60080E090E008952A
:100170009091C00095FFFCCF9DE09093C600EFCF1B
:100180009093C5008093C40086E08093C20088E904
:100190008093C10008959091C00095FFFCCF80939B
:1001A000C60008958091C00087FFFCCF8091C600F3
:1001B00008958091C000881F8827881F0895FC013A
:1001C0002081222351F031969091C00095FFFCCF01
:1001D0002093C60021912111F7CF089580E092E08D
:1001E00090931102809310021092C50082E38093D5
:1001F000C40086E08093C20088E98093C10008951E
:10020000CF93DF93CDB7DEB768970FB6F894DEBF14
:100210000FBECDBF0E94EE0082988A9A83988B9A77
:1002200084988C9A85988D9A86E4898781E090E0FD
:1002300098878F838DE48C8782E090E09B878A8704
:1002400082E58F8783E090E09E878D8784E48A8BA8
:1002500084E090E0998B888B0FC07B9B1FC07C9BB8
:100260002DC07D9B3BC02FEF81EE94E0215080405C
:100270009040E1F700C000007A99EFCF1F81088518
:10028000898590E00E947D01802F90E00E947D0191
:10029000812F90E00E947D017B99E1CF1A850B852B
:1002A0008C8590E00E947D01802F90E00E947D016E
:1002B000812F90E00E947D017C99D3CF1D850E8512
:1002C0008F8590E00E947D01802F90E00E947D014B
:1002D000812F90E00E947D017D99C5CF1889098901
:1002E0008A8990E00E947D01802F90E00E947D012C
:1002F000812F90E00E947D01B6CF60911002709135
:1003000011020C9483010F931F93CF93DF93FB0192
:10031000238121FD03C08FEF9FEF2CC022FF16C069
:1003200046815781248135814217530744F4A081C7
:10033000B1819D012F5F3F4F318320838C932681B4
:1003400037812F5F3F4F3783268314C08B01EC0129
:10035000FB010084F185E02D1995892BE1F6D80188
:1003600016968D919C911797019617969C938E9354
:100370001697CE01DF91CF911F910F910895F894B8
:02038000FFCFAD
:0E0382000000000200000000AD0000000000BE
:00000001FF
