:100000000C9474000C9495000C9495000C9495003D
:100010000C9495000C9495000C9495000C9495000C
:100020000C9495000C9495000C9495000C949500FC
:100030000C9495000C9495000C9495000C949500EC
:100040000C9495000C9495000C9495000C949500DC
:100050000C9495000C9495000C9495000C949500CC
:100060000C9495000C9495000C9495000C949500BC
:100070000C9495000C9495000C9495000C949500AC
:100080000C9495000C9495000C9495000C9495009C
:100090000C9495000C9495000C9495000C9495008C
:1000A0000C9495000C9495000C9495000C9495007C
:1000B0000C9495000C9495000C9495000C9495006C
:1000C0000C9495000C9495000C9495000C9495005C
:1000D0000C9495000C9495000C9495000C9495004C
:1000E0000C9495000C94EA0011241FBECFEFD1E2CE
:1000F000DEBFCDBF00E00CBF12E0A0E0B2E0ECEA52
:10010000F4E000E00BBF02C007900D92AE30B107E3
:10011000D9F722E0AEE0B2E001C01D92A631B207ED
:10012000E1F70E9460010C9454020C940000EF92DD
:10013000FF920F931F93CF93DF9300D000D0CDB7E2
:10014000DEB769837A838B839C838FE99FE0019775
:10015000F1F700C0000085E590E00E941202EFE98F
:10016000FFE03197F1F700C000008AEA90E00E94BA
:1001700012028E010F5F1F4F7E01F5E0EF0EF11CA2
:10018000F80181918F010E9408010E151F05C1F72A
:1001900064E070E0CE0101960E943D0190E00E9473
:1001A00012028FE99FE00197F1F700C000008AEA90
:1001B00090E00E94120280E090E026960FB6F8943C
:1001C000DEBF0FBECDBFDF91CF911F910F91FF908A
:1001D000EF9008958A3049F09091C00095FFFCCFD0
:1001E0008093C60080E090E008959091C00095FF54
:1001F000FCCF9DE09093C600EFCF9093C500809315
:10020000C40086E08093C20088E98093C10008950D
:100210009091C00095FFFCCF8093C6000895809117
:10022000C00087FFFCCF8091C60008958091C00078
:10023000881F8827881F0895FC012081222351F000
:1002400031969091C00095FFFCCF2093C60021917C
:100250002111F7CF089580E092E0909313028093EC
:1002600012021092C50083E38093C40086E080935D
:10027000C20088E98093C1000895AC0177276150DE
:10028000710984E616161706D4F4A0E020E030E0E9
:10029000FA01E20FF31F90812181392F322330952B
:1002A000292B932F9223292F28232095892B8223D2
:1002B000AF5F2A2F30E02617370754F308950895CB
:1002C000CF93DF93CDB7DEB7A6970FB6F894DEBF16
:1002D0000FBECDBF84E090E090930F0280930E029A
:1002E0000E942B0180B3837C80BB81B38C6381BB74
:1002F0008DE591E09A8789871B861C8689E491E0C9
:100300009E878D871F8681E0888B85E291E09A8B9E
:10031000898B1B8A82E08C8B86E091E09E8B8D8B93
:100320001F8A83E0888F8FB1982F9C739E012B5D6D
:100330003F4F59018FB18C73582E882E912C692E06
:10034000712CCE0101966C0182E0E82EF12C940113
:100350000E2C02C0359527950A94E2F7C3010E2CA6
:1003600002C0959587950A94E2F78227932780FF2C
:1003700041C0822F8170F60120FD52C01286F60125
:1003800080859185A285B38589A39AA3ABA3BCA3DD
:100390008FE99FE00197F1F700C0000085E590E04C
:1003A0000E941202EFE9FFE03197F1F700C0000070
:1003B0008AEA90E00E9412028E010F5D1F4FF80141
:1003C00081918F010E940801A016B106C1F764E077
:1003D00070E0CE0181960E943D0190E00E941202E1
:1003E0008FE99FE00197F1F700C000008AEA90E0F2
:1003F0000E9412029FEFE91AF90AE4E0CE0ED11C26
:10040000F6E0EF16F10409F0A2CF2FE738E381E020
:10041000215030408040E1F700C00000952D8ACF88
:100420008287ADCF60911202709113020C94180272
:100430000F931F93CF93DF93FB01238121FD03C013
:100440008FEF9FEF2CC022FF16C046815781248179
:1004500035814217530744F4A081B1819D012F5F7C
:100460003F4F318320838C93268137812F5F3F4F0D
:100470003783268314C08B01EC01FB010084F185D6
:10048000E02D1995892BE1F6D80116968D919C9156
:100490001797019617969C938E931697CE01DF912E
:0C04A000CF911F910F910895F894FFCFA9
:0E04AC000000000200000000EA000000000056
:00000001FF
