:100000000C9474000C9495000C9495000C9495003D
:100010000C9495000C9495000C9495000C9495000C
:100020000C9495000C9495000C9495000C949500FC
:100030000C9495000C9495000C9495000C949500EC
:100040000C9495000C9495000C9495000C949500DC
:100050000C9495000C9495000C9495000C949500CC
:100060000C9495000C9495000C9495000C949500BC
:100070000C9495000C9495000C9495000C949500AC
:100080000C9495000C9495000C9495000C9495009C
:100090000C9495000C9495000C9495000C9495008C
:1000A0000C9495000C9495000C9495000C9495007C
:1000B0000C9495000C9495000C9495000C9495006C
:1000C0000C9495000C9495000C9495000C9495005C
:1000D0000C9495000C9495000C9495000C9495004C
:1000E0000C9495000C94B50011241FBECFEFD1E203
:1000F000DEBFCDBF00E00CBF12E0A0E0B2E0E0E563
:10010000F3E000E00BBF02C007900D92AE30B107E4
:10011000D9F722E0AEE0B2E001C01D92A631B207ED
:10012000E1F70E942C010C94A6010C9400001F938F
:10013000CF93DF93162FD72FC82F85E50E94D300CA
:100140008AEA0E94D300812F0E94D3008D2F0E9443
:10015000D3008C2F0E94D3008AEA0E94D30080E053
:1001600090E0DF91CF911F9108958A3049F09091EE
:10017000C00095FFFCCF8093C60080E090E008951A
:100180009091C00095FFFCCF9DE09093C600EFCF0B
:100190009093C5008093C40086E08093C20088E9F4
:1001A0008093C10008959091C00095FFFCCF80938B
:1001B000C60008958091C00087FFFCCF8091C600E3
:1001C00008958091C000881F8827881F0895FC012A
:1001D0002081222351F031969091C00095FFFCCFF1
:1001E0002093C60021912111F7CF089580E092E07D
:1001F00090931302809312021092C50083E38093C0
:10020000C40086E08093C20088E98093C10008950D
:10021000FC0140815181352F34233095452B342307
:10022000232F24762095346623233281932F952320
:100230009095532B5923952F92239095252B9223FC
:100240002381822F83238095322B3823832F892388
:100250008095932B89230895CF93DF93CDB7DEB795
:1002600068970FB6F894DEBF0FBECDBF83E090E075
:1002700090930F0280930E020E94F60080B3837C5D
:1002800080BB81B38C6381BB86E48F83188619861B
:100290008DE48A871B861C8682E58D871E861F86D5
:1002A00084E4888B198A1A8A8FB1982F9C7387E10E
:1002B000882E8FB18C73982EA82EB12CC92ED12CDC
:1002C000CE0101967C0102E010E09501002E02C0F3
:1002D000359527950A94E2F7C601002E02C0959540
:1002E00087950A94E2F78227932780FF1AC0F701C7
:1002F00020FD2AC01782F70110867780668085E589
:100300000E94D3008AEA0E94D300862D0E94D30067
:10031000872D0E94D30080E00E94D3008AEA0E94C9
:10032000D3000F5F1F4FF3E0EF0EF11C06301105F5
:1003300061F62FE788E391E0215080409040E1F79B
:1003400000C00000992DB5CF8782D5CFF894FFCF9C
:0E0350000000000200000000B50000000000E8
:00000001FF
