:100000000C9474000C9495000C9495000C9495003D
:100010000C9495000C9495000C9495000C9495000C
:100020000C9495000C9495000C9495000C949500FC
:100030000C9495000C9495000C9495000C949500EC
:100040000C9495000C9495000C9495000C949500DC
:100050000C9495000C9495000C9495000C949500CC
:100060000C9495000C9495000C9495000C949500BC
:100070000C9495000C9495000C9495000C949500AC
:100080000C9495000C9495000C9495000C9495009C
:100090000C9495000C9495000C9495000C9495008C
:1000A0000C9495000C9495000C9495000C9495007C
:1000B0000C9495000C9495000C9495000C9495006C
:1000C0000C9495000C9495000C9495000C9495005C
:1000D0000C9495000C9495000C9495000C9495004C
:1000E0000C9495000C94D50011241FBECFEFD1E2E3
:1000F000DEBFCDBF00E00CBF12E0A0E0B2E0E4E460
:10010000F4E000E00BBF02C007900D92AE30B107E3
:10011000D9F722E0AEE0B2E001C01D92A631B207ED
:10012000E1F70E944B010C9420020C940000CF9345
:10013000DF9300D01F92CDB7DEB79A8389838FE912
:100140009FE00197F1F700C0000085E590E00E9474
:10015000DE018FE99FE00197F1F700C000008AEA15
:1001600090E00E94DE0189810E94F3008A810E9452
:10017000F30062E070E0CE0101960E94280190E059
:100180000E94DE018FE99FE00197F1F700C00000B7
:100190008AEA90E00E94DE0180E090E00F900F90EC
:1001A0000F900F90DF91CF9108958A3049F0909190
:1001B000C00095FFFCCF8093C60080E090E00895DA
:1001C0009091C00095FFFCCF9DE09093C600EFCFCB
:1001D0009093C5008093C40086E08093C20088E9B4
:1001E0008093C10008959091C00095FFFCCF80934B
:1001F000C60008958091C00087FFFCCF8091C600A3
:1002000008958091C000881F8827881F0895FC01E9
:100210002081222351F031969091C00095FFFCCFB0
:100220002093C60021912111F7CF089580E092E03C
:1002300090931302809312021092C50083E380937F
:10024000C40086E08093C20088E98093C1000895CD
:10025000AC0177276150710984E616161706D4F4AD
:10026000A0E020E030E0FA01E20FF31F908121814D
:10027000392F32233095292B932F9223292F28238E
:100280002095892B8223AF5F2A2F30E0261737076E
:1002900054F308950895CF93DF93CDB7DEB76497F5
:1002A0000FB6F894DEBF0FBECDBF82E090E0909312
:1002B0000F0280930E020E94160180B3837C80BBE4
:1002C00081B38C6381BB86E48D831E828DE48F8332
:1002D000188682E589871A8684E48B871C868FB10D
:1002E000982F9C738FB18C73982EA82EB12CC92E89
:1002F000D12CCE0101967C0102E010E09501002E88
:1003000002C0359527950A94E2F7C601002E02C077
:10031000959587950A94E2F78227932780FF38C046
:10032000822F8170F70120FD47C01582F70185817A
:100330009481998B8A8B8FE99FE00197F1F700C038
:10034000000085E590E00E94DE01EFE9FFE03197D3
:10035000F1F700C000008AEA90E00E94DE0189897E
:100360000E94F3008A890E94F30062E070E0CE01EF
:1003700041960E94280190E00E94DE018FE99FE0F3
:100380000197F1F700C000008AEA90E00E94DE01C8
:100390000F5F1F4F92E0E90EF11C0630110509F0C6
:1003A000ADCFEFE7F8E321E0E150F0402040E1F786
:1003B00000C00000992D96CF8583B8CF60911202BE
:1003C000709113020C94E4010F931F93CF93DF936A
:1003D000FB01238121FD03C08FEF9FEF2CC022FF83
:1003E00016C046815781248135814217530744F452
:1003F000A081B1819D012F5F3F4F318320838C937A
:10040000268137812F5F3F4F3783268314C08B01AE
:10041000EC01FB010084F185E02D1995892BE1F6B3
:10042000D80116968D919C911797019617969C93DB
:100430008E931697CE01DF91CF911F910F91089562
:04044000F894FFCF5E
:0E0444000000000200000000D50000000000D3
:00000001FF
