:100000000C9474000C9495000C9495000C9495003D
:100010000C9495000C9495000C9495000C9495000C
:100020000C9495000C9495000C9495000C949500FC
:100030000C9495000C9495000C9495000C949500EC
:100040000C9495000C9495000C9495000C949500DC
:100050000C9495000C9495000C9495000C949500CC
:100060000C9495000C9495000C9495000C949500BC
:100070000C9495000C9495000C9495000C949500AC
:100080000C9495000C9495000C9495000C9495009C
:100090000C9495000C9495000C9495000C9495008C
:1000A0000C9495000C9495000C9495000C9495007C
:1000B0000C9495000C9495000C9495000C9495006C
:1000C0000C9495000C9495000C9495000C9495005C
:1000D0000C9495000C9495000C9495000C9495004C
:1000E0000C9495000C94C50011241FBECFEFD1E2F3
:1000F000DEBFCDBF00E00CBF12E0A0E0B2E0E8E15F
:10010000F5E000E00BBF02C007900D92AE30B107E2
:10011000D9F722E0AEE0B2E001C01D92A431B207EF
:10012000E1F70E9437010C948A020C940000CF93EF
:10013000DF9300D0CDB7DEB769837A838B838AEAF9
:1001400090E00E9448028BEB90E00E944802898177
:1001500090E00E9448028A8190E00E9448028B81D0
:1001600090E00E94480263E070E0CE0101960E9498
:1001700018018BEB90E00E94480280E090E00F9025
:100180000F900F90DF91CF9108958A3049F09091B0
:10019000C00095FFFCCF8093C60080E090E00895FA
:1001A0009091C00095FFFCCF9DE09093C600EFCFEB
:1001B0009093C5008093C40086E08093C20088E9D4
:1001C0008093C10008959091C00095FFFCCF80936B
:1001D000C60008958091C00087FFFCCF8091C600C3
:1001E00008958091C000881F8827881F0895FC010A
:1001F0002081222351F031969091C00095FFFCCFD1
:100200002093C60021912111F7CF089580E092E05C
:1002100090931102809310021092C50082E38093A4
:10022000C40086E08093C20088E98093C1000895ED
:100230009C0161157105C9F0FC0191916F5F7F4FC1
:10024000620F731F80E03191432F49234095232F84
:10025000292B942F9223292F28232095892B822321
:10026000932F6E177F0779F7089580E00895CF9355
:10027000DF93CDB7DEB76B970FB6F894DEBF0FBE36
:10028000CDBF0E94060180B3837C80BB81B38C63A9
:1002900081BB86E48F83188619868DE48A871B8646
:1002A0001C8682E58D871E861F8684E4888B198ACA
:1002B0001A8A0FB10C738FB18C73D82EE82EF12CE3
:1002C00010E097013595279535952795C8019595A7
:1002D0008795959587958227932780FDB3C09701D1
:1002E000359527953595279535952795C801959589
:1002F000879595958795959587958227932780FD76
:100300007BC0970135952795359527953595279588
:1003100035952795C80195958795959587959595D8
:100320008795959587958227932780FD3FC0F59403
:10033000E794F594E794F594E794F594E794F594AD
:10034000E7941595079515950795159507951595B6
:10035000079515950795E016F10611F40D2DABCF15
:10036000E98A1A8A8889898FEA8E1B8E8AEA90E048
:100370000E9448028BEB90E00E944802898D90E039
:100380000E9448028A8D90E00E9448028B8D90E086
:100390000E94480263E070E0CE0149960E94180175
:1003A0008BEB90E00E9448020D2D85CF21702E87A7
:1003B0001F868D85898F2A8F1B8E8AEA90E00E9486
:1003C00048028BEB90E00E944802898D90E00E94E9
:1003D00048028A8D90E00E9448028B8D90E00E9436
:1003E000480263E070E0CE0149960E9418018BEB51
:1003F00090E00E9448029BCF21702B871C868A8543
:10040000898F2A8F1B8E8AEA90E00E9448028BEB2C
:1004100090E00E944802898D90E00E9448028A8DF7
:1004200090E00E9448028B8D90E00E94480263E0B9
:1004300070E0CE0149960E9418018BEB90E00E947B
:1004400048025FCF2170288719868F81898F2A8F74
:100450001B8E8AEA90E00E9448028BEB90E00E949B
:100460004802898D90E00E9448028A8D90E00E94A7
:1004700048028B8D90E00E94480263E070E0CE015C
:1004800049960E9418018BEB90E00E94480227CF0A
:1004900060911002709111020C944E020F931F9301
:1004A000CF93DF93FB01238121FD03C08FEF9FEFEB
:1004B0002CC022FF16C04681578124813581421706
:1004C000530744F4A081B1819D012F5F3F4F3183D9
:1004D00020838C93268137812F5F3F4F378326837C
:1004E00014C08B01EC01FB010084F185E02D19950E
:1004F000892BE1F6D80116968D919C91179701965C
:1005000017969C938E931697CE01DF91CF911F91F2
:080510000F910895F894FFCF4C
:0E0518000000000200000000C500000000000E
:00000001FF
