:100000000C9474000C9495000C9495000C9495003D
:100010000C9495000C9495000C9495000C9495000C
:100020000C9495000C9495000C9495000C949500FC
:100030000C9495000C9495000C9495000C949500EC
:100040000C9495000C9495000C9495000C949500DC
:100050000C9495000C9495000C9495000C949500CC
:100060000C9495000C9495000C9495000C949500BC
:100070000C9495000C9495000C9495000C949500AC
:100080000C9495000C9495000C9495000C9495009C
:100090000C9495000C9495000C9495000C9495008C
:1000A0000C9495000C9495000C9495000C9495007C
:1000B0000C9495000C9495000C9495000C9495006C
:1000C0000C9495000C9495000C9495000C9495005C
:1000D0000C9495000C9495000C9495000C9495004C
:1000E0000C9495000C94E20011241FBECFEFD1E2D6
:1000F000DEBFCDBF00E00CBF12E0A0E0B2E0E2EA5C
:10010000FBE000E00BBF02C007900D92AA32B107DE
:10011000D9F722E0AAE2B2E001C01D92A433B207EF
:10012000E1F70E9435010C94CF050C940000EF928A
:10013000FF920F931F93CF93DF937C018B01CB0131
:100140000E94D101EC01A801B7010E94F202CE0188
:10015000DF91CF911F910F91FF90EF9008950F9332
:100160001F93CF93DF93EC0182E090E00E94D101D6
:100170008C0188819981F801918380838AEA90E0DB
:100180000E940F0385E590E00E940F038AEA90E049
:100190000E940F03E80123968A9190E00E940F03CA
:1001A0000C171D07C9F780E090E00E940F0385E55A
:1001B00090E00E940F0380E090E0DF91CF911F91CB
:1001C0000F9108958A3049F09091C00095FFFCCFBF
:1001D0008093C60080E090E008959091C00095FF64
:1001E000FCCF9DE09093C600EFCF9093C500809325
:1001F000C40086E08093C20088E98093C10008951E
:100200009091C00095FFFCCF8093C6000895809127
:10021000C00087FFFCCF8091C60008958091C00088
:10022000881F8827881F0895FC012081222351F010
:1002300031969091C00095FFFCCF2093C60021918C
:100240002111F7CF089580E092E0909331028093DE
:1002500030021092C50082E38093C40086E0809350
:10026000C20088E98093C1000895CF93DF93CDB792
:10027000DEB768970FB6F894DEBF0FBECDBF0E9401
:10028000230180B3817E80BB81B38E6181BB0FB1BE
:100290000E718A80912CA980B12CE4E1CE2EE2E08F
:1002A000DE2EF6E44F2EADE45A2EB2E56B2E8FB162
:1002B0008E71782E9F928F92BF92AF92DF92CF92E3
:1002C0000E94FB02E72CF12C970135952795359577
:1002D000279510E0C8019595879595958795822774
:1002E00093270F900F900F900F900F900F9080FD1D
:1002F00048C09701359527953595279535952795CC
:10030000C8019595879595958795959587958227A9
:10031000932780FD26C0F594E794F594E794F5942F
:10032000E794F594E7941595079515950795159518
:10033000079515950795E016F10611F4072DB7CF2F
:10034000FF24FF92EF921F926F92DF92CF920E9452
:10035000FB020F900F900F900F900F900F90072DB2
:10036000A6CF21701F922F931F925F92DF92CF92A0
:100370000E94FB020F900F900F900F900F900F9024
:10038000CACF21701F922F931F924F92DF92CF926C
:100390000E94FB020F900F900F900F900F900F9004
:1003A000A8CF0F931F93CF93DF938230910510F462
:1003B00082E090E0E0912C02F0912D0220E030E00C
:1003C000A0E0B0E0309719F14081518102811381A2
:1003D00048175907C8F08417950769F4109731F04A
:1003E00012960C93129713961C9327C000932C021D
:1003F00010932D0222C02115310519F04217530721
:1004000018F49A01BD01EF01DF01F801DBCF2115DE
:100410003105F9F0281B390B2430310580F48A812D
:100420009B816115710521F0FB019383828304C0D8
:1004300090932D0280932C02FE01329644C0FE015F
:10044000E20FF31F8193919322503109398328835E
:100450003AC020912A0230912B02232B41F42091A3
:1004600010023091110230932B0220932A02209126
:100470000E0230910F022115310541F42DB73EB720
:100480004091120250911302241B350BE0912A0275
:10049000F0912B02E217F307A0F42E1B3F0B281755
:1004A000390778F0AC014E5F5F4F2417350748F0ED
:1004B0004E0F5F1F50932B0240932A02819391931A
:1004C00002C0E0E0F0E0CF01DF91CF911F910F91EA
:1004D0000895CF93DF93009709F481C0FC01329710
:1004E00013821282A0912C02B0912D02109781F4F8
:1004F00020813181820F931F20912A0230912B029B
:100500002817390751F5F0932B02E0932A0267C0B0
:10051000ED0120E030E0CE17DF0740F44A815B8137
:100520009E0141155105F1F0EA01F5CFD383C28355
:1005300040815181840F951FC817D90759F48881CC
:100540009981840F951F0296918380838A819B8174
:10055000938382832115310529F4F0932D02E093D2
:100560002C023DC0E901FB83EA8349915991C40FF4
:10057000D51FEC17FD0761F480819181840F951FD1
:100580000296E90199838883828193819B838A8380
:10059000E0E0F0E012968D919C911397009719F08E
:1005A000FD01DC01F7CF8D919C9111979D012E5F8C
:1005B0003F4F820F931F20912A0230912B02281760
:1005C000390769F4309729F410922D0210922C0209
:1005D00002C013821282B0932B02A0932A02DF91F1
:1005E000CF910895FB01DC0102C001900D924150B2
:1005F0005040D8F70895CF93DF93CDB7DEB7AE0163
:100600004A5F5F4FFA0161917191AF0180913002B1
:10061000909131020E941503DF91CF91089560916E
:100620003002709131020C9435052F923F924F9217
:100630005F926F927F928F929F92AF92BF92CF9272
:10064000DF92EF92FF920F931F93CF93DF93CDB77B
:10065000DEB72B970FB6F894DEBF0FBECDBF6C018F
:100660007B018A01FC0117821682838181FFCCC144
:10067000CE0101963C01F6019381F70193FD85912E
:1006800093FF81917F01882309F4BAC1853239F43F
:1006900093FD859193FF81917F01853229F4B60105
:1006A00090E00E943505E7CF912C212C312CFFE101
:1006B000F315D8F08B3279F038F4803279F0833248
:1006C000A1F4232D20611DC08D3261F0803369F4C7
:1006D000232D216016C0832D8260382EE32DE46027
:1006E0003E2E2AC0F32DF8601DC037FC2DC020ED32
:1006F000280F2A3040F08E32B9F436FC81C1232D08
:100700002064322E19C036FE06C08AE0989E200D65
:100710001124922E11C0EAE02E9E200D1124222ECB
:10072000F32DF0623F2E08C08C3621F4832D8068B3
:10073000382E02C0883641F4F70193FD859193FF6E
:1007400081917F018111B3CF982F9F7D9554933074
:1007500028F40C5F1F4F9FE399830DC0833631F05F
:10076000833771F0833509F059C021C0F8018081C9
:1007700089830E5F1F4F88248394912C530113C0EB
:100780002801F2E04F0E511CF801A080B18036FE26
:1007900003C0692D70E002C06FEF7FEFC5010E94BA
:1007A0002A054C018201F32DFF773F2E16C0280148
:1007B00022E0420E511CF801A080B18036FE03C039
:1007C000692D70E002C06FEF7FEFC5010E941F0529
:1007D0004C01F32DF0683F2E820133FC1BC0822DAB
:1007E00090E088169906B0F4B60180E290E00E948D
:1007F00035052A94F4CFF50137FC859137FE8191B8
:100800005F01B60190E00E94350521102A9421E095
:10081000821A91088114910471F7E8C0843611F0AE
:10082000893641F5F80137FE07C060817181828108
:1008300093810C5F1F4F08C060817181072E000CEF
:10084000880B990B0E5F1F4FF32DFF763F2E97FFFE
:1008500009C090958095709561957F4F8F4F9F4F00
:10086000F0683F2E2AE030E0A3010E947105882E37
:10087000861845C0853731F4232D2F7EB22E2AE00D
:1008800030E025C0932D997FB92E8F36C1F018F432
:10089000883579F0B5C0803719F0883721F0B0C0BD
:1008A000E92FE061BE2EB4FE0DC0FB2DF460BF2E1B
:1008B00009C034FE0AC0292F2660B22E06C028E0E7
:1008C00030E005C020E130E002C020E132E0F80174
:1008D000B7FE07C060817181828193810C5F1F4FD9
:1008E00006C06081718180E090E00E5F1F4FA30120
:1008F0000E947105882E8618FB2DFF773F2E36FE4D
:100900000DC0232D2E7FA22E891458F434FE0BC067
:1009100032FC09C0832D8E7EA82E05C0B82CA32CD6
:1009200003C0B82C01C0B92CA4FE0FC0FE01E80D15
:10093000F11D8081803321F49A2D997EA92E09C062
:10094000A2FE06C0B394B39404C08A2D867809F041
:10095000B394A3FC11C0A0FE06C0B21488F4280C06
:10096000922C9B180EC0B21460F4B60180E290E0A5
:100970000E943505B394F7CFB21418F42B1802C0B7
:10098000982C212CA4FE10C0B60180E390E00E94B8
:100990003505A2FE17C0A1FC03C088E790E002C0A5
:1009A00088E590E0B6010CC08A2D867859F0A1FE4A
:1009B00002C08BE201C080E2A7FC8DE2B60190E0AC
:1009C0000E943505891438F4B60180E390E00E9456
:1009D00035059A94F7CF8A94F301E80DF11D8081D3
:1009E000B60190E00E9435058110F5CF222009F470
:1009F00042CEB60180E290E00E9435052A94F6CFFF
:100A0000F6018681978102C08FEF9FEF2B960FB67C
:100A1000F894DEBF0FBECDBFDF91CF911F910F9134
:100A2000FF90EF90DF90CF90BF90AF909F908F900E
:100A30007F906F905F904F903F902F900895FC01B2
:100A40000590615070400110D8F7809590958E0FF9
:100A50009F1F0895FC016150704001900110D8F76C
:100A6000809590958E0F9F1F08950F931F93CF939E
:100A7000DF93FB01238121FD03C08FEF9FEF2CC08B
:100A800022FF16C0468157812481358142175307C2
:100A900044F4A081B1819D012F5F3F4F31832083BA
:100AA0008C93268137812F5F3F4F3783268314C075
:100AB0008B01EC01FB010084F185E02D1995892B58
:100AC000E1F6D80116968D919C911797019617968D
:100AD0009C938E931697CE01DF91CF911F910F912A
:100AE0000895FA01AA27283051F1203181F1E894C4
:100AF0006F936E7F6E5F7F4F8F4F9F4FAF4FB1E011
:100B00003ED0B4E03CD0670F781F891F9A1FA11D0B
:100B1000680F791F8A1F911DA11D6A0F711D811D0C
:100B2000911DA11D20D009F468943F912AE0269FD1
:100B300011243019305D3193DEF6CF010895462F30
:100B40004770405D4193B3E00FD0C9F7F6CF462F11
:100B50004F70405D4A3318F0495D31FD405241937A
:100B600002D0A9F7EACFB4E0A69597958795779537
:100B70006795BA95C9F700976105710508959B01BE
:100B8000AC010A2E06945795479537952795BA9547
:100B9000C9F7620F731F841F951FA01D0895F89455
:020BA000FFCF85
:100BA2000000000200000000E2000000000000005F
:100BB200340220006E6F74613A2025632C2070721B
:0A0BC200656D7574613A202563002B
:00000001FF
