:100000000C9474000C9495000C9495000C9495003D
:100010000C9495000C9495000C9495000C9495000C
:100020000C9495000C9495000C9495000C949500FC
:100030000C9495000C9495000C9495000C949500EC
:100040000C9495000C9495000C9495000C949500DC
:100050000C9495000C9495000C9495000C949500CC
:100060000C9495000C9495000C9495000C949500BC
:100070000C9495000C9495000C9495000C949500AC
:100080000C9495000C9495000C9495000C9495009C
:100090000C9495000C9495000C9495000C9495008C
:1000A0000C9495000C9495000C9495000C9495007C
:1000B0000C9495000C9495000C9495000C9495006C
:1000C0000C9495000C9495000C9495000C9495005C
:1000D0000C9495000C9495000C9495000C9495004C
:1000E0000C9495000C94BF0011241FBECFEFD1E2F9
:1000F000DEBFCDBF00E00CBF12E0A0E0B2E0E8E55B
:10010000F4E000E00BBF02C007900D92AE30B107E3
:10011000D9F722E0AEE0B2E001C01D92A431B207EF
:10012000E1F70E9412010C942A020C94000080E076
:1001300090E008951F93CF93DF93FC011081D1814C
:10014000C2818AEA90E00E94E8018BEB90E00E9475
:10015000E801812F90E00E94E8018D2F90E00E943D
:10016000E8018C2F90E00E94E8018BEB90E00E9468
:10017000E80180E090E0DF91CF911F9108958A30EF
:1001800049F09091C00095FFFCCF8093C60080E0BD
:1001900090E008959091C00095FFFCCF9DE0909372
:1001A000C600EFCF9093C5008093C40086E0809393
:1001B000C20088E98093C10008959091C00095FF26
:1001C000FCCF8093C60008958091C00087FFFCCFCC
:1001D0008091C60008958091C000881F8827881FDD
:1001E0000895FC012081222351F031969091C000A6
:1001F00095FFFCCF2093C60021912111F7CF0895E0
:1002000080E092E090931102809310021092C5005A
:1002100082E38093C40086E08093C20088E98093E3
:10022000C1000895CF93DF93CDB7DEB768970FB6BF
:10023000F894DEBF0FBECDBF0E94000180B3837C67
:1002400080BB81B38C6381BB86E48F83188619865B
:100250008DE48A871B861C8682E58D871E861F8615
:1002600084E4888B198A1A8A0FB10C738FB18C734E
:10027000D82EE82EF12C10E0C7018027912782FDAF
:1002800086C0C8018E259F2583FD60C0C8018E25CC
:100290009F2584FD3AC0F594E794F594E794F5948E
:1002A000E794F594E794F594E794159507951595DB
:1002B0000795159507951595079515950795E016DA
:1002C000F10611F40D2DD2CF11E08989811110E0D2
:1002D000198B1A8AC8888AEA90E00E94E8018BEBA1
:1002E00090E00E94E8018C2D90E00E94E801812FAF
:1002F00090E00E94E80180E090E00E94E8018BEB32
:1003000090E00E94E8010D2DB1CFBB24B3948E85FF
:100310008111B12CBE861F86CD848AEA90E00E94AE
:10032000E8018BEB90E00E94E8018C2D90E00E94A8
:10033000E8018B2D90E00E94E80180E090E00E94AF
:10034000E8018BEB90E00E94E801A5CFBB24B394B9
:100350008B858111B12CBB861C86CA848AEA90E009
:100360000E94E8018BEB90E00E94E8018C2D90E068
:100370000E94E8018B2D90E00E94E80180E090E06F
:100380000E94E8018BEB90E00E94E8017FCFBB2444
:10039000B39488858111B12CB8861986CF808AEAFA
:1003A00090E00E94E8018BEB90E00E94E8018C2D28
:1003B00090E00E94E8018B2D90E00E94E80180E02F
:1003C00090E00E94E8018BEB90E00E94E80159CF99
:1003D00060911002709111020C94EE010F931F9323
:1003E000CF93DF93FB01238121FD03C08FEF9FEFAC
:1003F0002CC022FF16C046815781248135814217C7
:10040000530744F4A081B1819D012F5F3F4F318399
:1004100020838C93268137812F5F3F4F378326833C
:1004200014C08B01EC01FB010084F185E02D1995CE
:10043000892BE1F6D80116968D919C91179701961C
:1004400017969C938E931697CE01DF91CF911F91B3
:080450000F910895F894FFCF0D
:0E0458000000000200000000BF0000000000D5
:00000001FF
