:100000000C9474000C9495000C9495000C9495003D
:100010000C9495000C9495000C9495000C9495000C
:100020000C9495000C9495000C9495000C949500FC
:100030000C9495000C9495000C9495000C949500EC
:100040000C9495000C9495000C9495000C949500DC
:100050000C9495000C9495000C9495000C949500CC
:100060000C9495000C9495000C9495000C949500BC
:100070000C9495000C9495000C9495000C949500AC
:100080000C9495000C9495000C9495000C9495009C
:100090000C9495000C9495000C9495000C9495008C
:1000A0000C9495000C9495000C9495000C9495007C
:1000B0000C9495000C9495000C9495000C9495006C
:1000C0000C9495000C9495000C9495000C9495005C
:1000D0000C9495000C9495000C9495000C9495004C
:1000E0000C9495000C94C40011241FBECFEFD1E2F4
:1000F000DEBFCDBF00E00CBF12E0A0E0B2E0E8EF51
:10010000F3E000E00BBF02C007900D92AE30B107E4
:10011000D9F722E0AEE0B2E001C01D92A631B207ED
:10012000E1F70E9430010C94FA010C940000CF9387
:10013000DF93D82FC92F8FE99FE00197F1F700C017
:10014000000085E590E00E94B8018FE99FE00197EB
:10015000F1F700C000008AEA90E00E94B8018D2FFC
:100160000E94E2008C2F0E94E2008FE99FE001973D
:10017000F1F700C000008AEA90E00E94B80180E038
:1001800090E0DF91CF9108958A3049F09091C000BE
:1001900095FFFCCF8093C60080E090E00895909199
:1001A000C00095FFFCCF9DE09093C600EFCF9093E9
:1001B000C5008093C40086E08093C20088E98093E4
:1001C000C10008959091C00095FFFCCF8093C600B8
:1001D00008958091C00087FFFCCF8091C6000895EC
:1001E0008091C000881F8827881F0895FC01208106
:1001F000222351F031969091C00095FFFCCF2093BF
:10020000C60021912111F7CF089580E092E09093EC
:100210001302809312021092C50087E68093C400F7
:1002200086E08093C20088E98093C1000895FC01B4
:1002300030814181242F23232095342B2323922F97
:1002400094769095246692232281822F8423809530
:10025000422B4823842F89238095942B892308954A
:10026000CF93DF93CDB7DEB760970FB6F894DEBFBC
:100270000FBECDBF82E090E090930F0280930E02FC
:100280000E94050180B3837C80BB81B38C6381BBFA
:1002900086E48D831E828DE48F83188682E58987AC
:1002A0001A8684E48B871C868FB1982F9C738FB13C
:1002B0008C73982EA82EB12CC92ED12CCE0101966C
:1002C0007C0102E010E09501002E02C035952795D3
:1002D0000A94E2F7C601002E02C0959587950A940C
:1002E000E2F78227932780FF2DC0822F8170F701CC
:1002F00020FD3CC01582F701748085808FE99FE066
:100300000197F1F700C0000085E590E00E94B80178
:10031000EFE9FFE03197F1F700C000008AEA90E0D2
:100320000E94B801872D0E94E200882D0E94E20001
:100330008FE99FE00197F1F700C000008AEA90E0A2
:100340000E94B8010F5F1F4F92E0E90EF11C0630CA
:10035000110509F0B8CFEFE7F8E321E0E150F040F4
:100360002040E1F700C00000992DA1CF8583C3CFC5
:1003700060911202709113020C94BE010F931F93AF
:10038000CF93DF93FB01238121FD03C08FEF9FEF0C
:100390002CC022FF16C04681578124813581421727
:1003A000530744F4A081B1819D012F5F3F4F3183FA
:1003B00020838C93268137812F5F3F4F378326839D
:1003C00014C08B01EC01FB010084F185E02D19952F
:1003D000892BE1F6D80116968D919C91179701967D
:1003E00017969C938E931697CE01DF91CF911F9114
:0803F0000F910895F894FFCF6E
:0E03F8000000000200000000C4000000000031
:00000001FF
