:100000000C9474000C9495000C9495000C9495003D
:100010000C9495000C9495000C9495000C9495000C
:100020000C9495000C9495000C9495000C949500FC
:100030000C9495000C9495000C9495000C949500EC
:100040000C9495000C9495000C9495000C949500DC
:100050000C9495000C9495000C9495000C949500CC
:100060000C9495000C9495000C9495000C949500BC
:100070000C9495000C9495000C9495000C949500AC
:100080000C9495000C9495000C9495000C9495009C
:100090000C9495000C9495000C9495000C9495008C
:1000A0000C9495000C9495000C9495000C9495007C
:1000B0000C9495000C9495000C9495000C9495006C
:1000C0000C9495000C9495000C9495000C9495005C
:1000D0000C9495000C9495000C9495000C9495004C
:1000E0000C9495000C94BB0011241FBECFEFD1E2FD
:1000F000DEBFCDBF00E00CBF12E0A0E0B2E0E8E858
:10010000F4E000E00BBF02C007900D92AE30B107E3
:10011000D9F722E0AEE0B2E001C01D92A431B207EF
:10012000E1F70E940E010C9442020C9400001F9310
:10013000CF93DF93162FD72FC82F8AEA90E00E9423
:1001400000028BEB90E00E940002812F90E00E9461
:1001500000028D2F90E00E9400028C2F90E00E9400
:1001600000028BEB90E00E94000280E090E0DF91C3
:10017000CF911F9108958A3049F09091C00095FF6A
:10018000FCCF8093C60080E090E008959091C0007D
:1001900095FFFCCF9DE09093C600EFCF9093C500F4
:1001A0008093C40086E08093C20088E98093C100F8
:1001B00008959091C00095FFFCCF8093C6000895EC
:1001C0008091C00087FFFCCF8091C6000895809188
:1001D000C000881F8827881F0895FC0120812223E2
:1001E00051F031969091C00095FFFCCF2093C6004E
:1001F00021912111F7CF089580E092E090931102B0
:10020000809310021092C50082E38093C40086E0C0
:100210008093C20088E98093C1000895CF93DF9353
:10022000CDB7DEB768970FB6F894DEBF0FBECDBF6F
:100230000E94FC0080B3837C80BB81B38C6381BB54
:1002400086E48F83188619868DE48A871B861C8630
:1002500082E58D871E861F8684E4888B198A1A8A18
:100260000FB10C738FB18C73D82EE82EF12C10E0E7
:10027000C70195958795959587959801359527950B
:10028000359527952827392720FD9BC0C7019595CF
:100290008795959587959595879598013595279597
:1002A00035952795359527952827392720FD6AC04C
:1002B000C70195958795959587959595879595957A
:1002C00087959801359527953595279535952795E7
:1002D000359527952827392720FD35C0F594E794D3
:1002E000F594E794F594E794F594E794F594E794FE
:1002F00015950795159507951595079515950795E6
:1003000015950795E016F10611F40D2DABCFE98A8E
:100310001A8AB8888AEA90E00E9400028BEB90E08B
:100320000E9400028B2D90E00E940002C7010E94F3
:10033000000280E090E00E9400028BEB90E00E94BF
:1003400000020D2D8FCF282F2170C22E2E871F86E1
:10035000BD848AEA90E00E9400028BEB90E00E944C
:1003600000028B2D90E00E9400028C2D90E00E94F4
:10037000000280E090E00E9400028BEB90E00E947F
:100380000002ACCF282F2170C22E2B871C86BA8486
:100390008AEA90E00E9400028BEB90E00E9400024B
:1003A0008B2D90E00E9400028C2D90E00E940002B4
:1003B00080E090E00E9400028BEB90E00E9400023F
:1003C00077CF282F2170C22E28871986BF808AEA0E
:1003D00090E00E9400028BEB90E00E9400028B2DC7
:1003E00090E00E9400028C2D90E00E94000280E0CC
:1003F00090E00E9400028BEB90E00E94000246CF4A
:1004000060911002709111020C9406020F931F93D9
:10041000CF93DF93FB01238121FD03C08FEF9FEF7B
:100420002CC022FF16C04681578124813581421796
:10043000530744F4A081B1819D012F5F3F4F318369
:1004400020838C93268137812F5F3F4F378326830C
:1004500014C08B01EC01FB010084F185E02D19959E
:10046000892BE1F6D80116968D919C9117970196EC
:1004700017969C938E931697CE01DF91CF911F9183
:080480000F910895F894FFCFDD
:0E0488000000000200000000BB0000000000A9
:00000001FF
