:100000000C9474000C9495000C9495000C9495003D
:100010000C9495000C9495000C9495000C9495000C
:100020000C9495000C9495000C9495000C949500FC
:100030000C9495000C9495000C9495000C949500EC
:100040000C9495000C9495000C9495000C949500DC
:100050000C9495000C9495000C9495000C949500CC
:100060000C9495000C9495000C9495000C949500BC
:100070000C9495000C9495000C9495000C949500AC
:100080000C9495000C9495000C9495000C9495009C
:100090000C9495000C9495000C9495000C9495008C
:1000A0000C9495000C9495000C9495000C9495007C
:1000B0000C9495000C9495000C9495000C9495006C
:1000C0000C9495000C9495000C9495000C9495005C
:1000D0000C9495000C9495000C9495000C9495004C
:1000E0000C9495000C94E80011241FBECFEFD1E2D0
:1000F000DEBFCDBF00E00CBF12E0A0E0B2E0E8E858
:10010000F4E000E00BBF02C007900D92AE30B107E3
:10011000D9F722E0AEE0B2E001C01D92A631B207ED
:10012000E1F70E9454010C9442020C940000CF931A
:10013000DF93D82FC92F8FE99FE00197F1F700C017
:10014000000085E590E00E9400028FE99FE00197A2
:10015000F1F700C000008AEA90E00E9400028D2FB3
:100160000E9406018C2F0E9406018FE99FE00197F3
:10017000F1F700C000008AEA90E00E9400028FE9D7
:100180009FE00197F1F700C0000083E390E00E9438
:1001900000028FE99FE00197F1F700C0000083E3C0
:1001A00090E00E9400028FE99FE00197F1F700C004
:1001B000000083E390E00E9400028FE99FE0019736
:1001C000F1F700C0000080E090E0DF91CF9108954A
:1001D0008A3049F09091C00095FFFCCF8093C60013
:1001E00080E090E008959091C00095FFFCCF9DE0E5
:1001F0009093C600EFCF9093C5008093C40086E033
:100200008093C20088E98093C10008959091C00056
:1002100095FFFCCF8093C60008958091C00087FFB2
:10022000FCCF8091C60008958091C000881F882768
:10023000881F0895FC012081222351F0319690916E
:10024000C00095FFFCCF2093C60021912111F7CF6C
:10025000089580E092E0909313028093120210922E
:10026000C50087E68093C40086E08093C20088E9D9
:100270008093C1000895FC0130814181242F232304
:100280002095342B2323922F9476909524669223E5
:100290002281822F84238095422B4823842F892317
:1002A0008095942B89230895CF93DF93CDB7DEB744
:1002B00060970FB6F894DEBF0FBECDBF82E090E02E
:1002C00090930F0280930E020E94290180B3837CD9
:1002D00080BB81B38C6381BB81E08D831E8282E011
:1002E0008F83188683E089871A8684E08B871C8633
:1002F0008FB1982F9C738FB18C73982EA82EB12C30
:10030000C92ED12CCE0101967C0102E010E09501AE
:10031000002E02C0359527950A94E2F7C601002EFB
:1003200002C0959587950A94E2F78227932780FF6C
:1003300051C0822F8170F70120FD60C01582F70146
:10034000748085808FE99FE00197F1F700C000007D
:1003500085E590E00E940002EFE9FFE03197F1F7B8
:1003600000C000008AEA90E00E940002872D0E94EF
:100370000601882D0E9406018FE99FE00197F1F7A1
:1003800000C000008AEA90E00E940002EFE9FFE06E
:100390003197F1F700C0000083E390E00E94000273
:1003A0008FE99FE00197F1F700C0000083E390E040
:1003B0000E940002EFE9FFE03197F1F700C0000072
:1003C00083E390E00E9400028FE99FE00197F1F73C
:1003D00000C000000F5F1F4F92E0E90EF11C0630D5
:1003E000110509F094CFEFE7F8E321E0E150F04088
:1003F0002040E1F700C00000992D7DCF85839FCF7D
:1004000060911202709113020C9406020F931F93D5
:10041000CF93DF93FB01238121FD03C08FEF9FEF7B
:100420002CC022FF16C04681578124813581421796
:10043000530744F4A081B1819D012F5F3F4F318369
:1004400020838C93268137812F5F3F4F378326830C
:1004500014C08B01EC01FB010084F185E02D19959E
:10046000892BE1F6D80116968D919C9117970196EC
:1004700017969C938E931697CE01DF91CF911F9183
:080480000F910895F894FFCFDD
:0E0488000000000200000000E800000000007C
:00000001FF
