:100000000C9474000C9495000C9495000C9495003D
:100010000C9495000C9495000C9495000C9495000C
:100020000C9495000C9495000C9495000C949500FC
:100030000C9495000C9495000C9495000C949500EC
:100040000C9495000C9495000C9495000C949500DC
:100050000C9495000C9495000C9495000C949500CC
:100060000C9495000C9495000C9495000C949500BC
:100070000C9495000C9495000C9495000C949500AC
:100080000C9495000C9495000C9495000C9495009C
:100090000C9495000C9495000C9495000C9495008C
:1000A0000C9495000C9495000C9495000C9495007C
:1000B0000C9495000C9495000C9495000C9495006C
:1000C0000C9495000C9495000C9495000C9495005C
:1000D0000C9495000C9495000C9495000C9495004C
:1000E0000C9495000C94C80011241FBECFEFD1E2F0
:1000F000DEBFCDBF00E00CBF12E0A0E0B2E0EEE357
:10010000F5E000E00BBF02C007900D92AE30B107E2
:10011000D9F722E0AEE0B2E001C01D92A431B207EF
:10012000E1F70E943E010C949D020C940000CF93D5
:10013000DF9300D0CDB7DEB769837A838B838AEAF9
:1001400090E00E945B028BEB90E00E945B02898151
:1001500090E00E945B028A8190E00E945B028B81AA
:1001600090E00E945B0263E070E0CE0101960E9485
:100170001B0190E00E945B028BEB90E00E945B020F
:1001800080E090E00F900F900F90DF91CF91089555
:100190008A3049F09091C00095FFFCCF8093C60053
:1001A00080E090E008959091C00095FFFCCF9DE025
:1001B0009093C600EFCF9093C5008093C40086E073
:1001C0008093C20088E98093C10008959091C00097
:1001D00095FFFCCF8093C60008958091C00087FFF3
:1001E000FCCF8091C60008958091C000881F8827A9
:1001F000881F0895FC012081222351F031969091AF
:10020000C00095FFFCCF2093C60021912111F7CFAC
:10021000089580E092E09093110280931002109272
:10022000C50082E38093C40086E08093C20088E921
:100230008093C1000895AC0177276150710984E66D
:1002400016161706D4F4A0E020E030E0FA01E20F21
:10025000F31F90812181392F32233095292B932F41
:100260009223292F28232095892B8223AF5F2A2FC1
:1002700030E02617370754F308950895CF93DF939E
:10028000CDB7DEB76B970FB6F894DEBF0FBECDBF0C
:100290000E94090180B3837C80BB81B38C6381BBE6
:1002A00086E48F83188619868DE48A871B861C86D0
:1002B00082E58D871E861F8684E4888B198A1A8AB8
:1002C0000FB10C738FB18C73D82EE82EF12C10E087
:1002D00097013595279535952795C801959587956B
:1002E000959587958227932780FDBCC0970135950A
:1002F00027953595279535952795C8019595879527
:1003000095958795959587958227932780FD81C040
:1003100097013595279535952795359527953595E9
:100320002795C80195958795959587959595879576
:10033000959587958227932780FD42C0F594E79491
:10034000F594E794F594E794F594E794F594E7949D
:100350001595079515950795159507951595079585
:1003600015950795E016F10611F40D2DABCFE98A2E
:100370001A8A8889898FEA8E1B8E8AEA90E00E9409
:100380005B028BEB90E00E945B02898D90E00E9403
:100390005B028A8D90E00E945B028B8D90E00E9450
:1003A0005B0263E070E0CE0149960E941B0190E081
:1003B0000E945B028BEB90E00E945B020D2D82CFCE
:1003C00021702E871F868D85898F2A8F1B8E8AEA42
:1003D00090E00E945B028BEB90E00E945B02898DB3
:1003E00090E00E945B028A8D90E00E945B028B8D00
:1003F00090E00E945B0263E070E0CE0149960E94AB
:100400001B0190E00E945B028BEB90E00E945B027C
:1004100095CF21702B871C868A85898F2A8F1B8E0A
:100420008AEA90E00E945B028BEB90E00E945B0204
:10043000898D90E00E945B028A8D90E00E945B02B1
:100440008B8D90E00E945B0263E070E0CE014996E4
:100450000E941B0190E00E945B028BEB90E00E94E7
:100460005B0256CF2170288719868F81898F2A8F4A
:100470001B8E8AEA90E00E945B028BEB90E00E9468
:100480005B02898D90E00E945B028A8D90E00E9461
:100490005B028B8D90E00E945B0263E070E0CE0116
:1004A00049960E941B0190E00E945B028BEB90E05A
:1004B0000E945B021BCF60911002709111020C949C
:1004C00061020F931F93CF93DF93FB01238121FDE3
:1004D00003C08FEF9FEF2CC022FF16C046815781CB
:1004E000248135814217530744F4A081B1819D01D5
:1004F0002F5F3F4F318320838C93268137812F5F7D
:100500003F4F3783268314C08B01EC01FB0100842D
:10051000F185E02D1995892BE1F6D80116968D917C
:100520009C911797019617969C938E931697CE01E0
:0E053000DF91CF911F910F910895F894FFCFA6
:0E053E000000000200000000C80000000000E5
:00000001FF
