:100000000C9472000C9486000C9486000C9486006C
:100010000C9486000C9486000C9486000C94860048
:100020000C9486000C9486000C9486000C94860038
:100030000C9486000C9486000C9486000C94860028
:100040000C9486000C9486000C9486000C94860018
:100050000C9486000C9486000C9486000C94860008
:100060000C9486000C9443010C946E010C94860051
:100070000C9486000C9486000C9486000C948600E8
:100080000C9486000C9486000C9486000C948600D8
:100090000C9486000C9486000C9486000C948600C8
:1000A0000C9486000C9486000C9486000C948600B8
:1000B0000C9486000C9486000C9486000C948600A8
:1000C0000C9486000C9486000C9486000C94860098
:1000D0000C9486000C9486000C9486000C94860088
:1000E0000C94860011241FBECFEFD1E2DEBFCDBF3E
:1000F00000E00CBF24E0A0E0B2E001C01D92A830F7
:10010000B207E1F70E94C2010C947E020C94000039
:10011000CF92DF92EF92FF920F931F93CF93DF93D3
:1001200000D000D0CDB7DEB77C0149835A836B8302
:100130007C838FE99FE00197F1F700C0000065E53F
:10014000C7010E941B01EFE9FFE03197F1F700C002
:1001500000006AEAC7010E941B018E010F5F1F4F5A
:100160006E01F5E0CF0ED11CF80161918F01C7013E
:100170000E941B010C151D05B9F764E070E0CE016B
:1001800001960E949F01682FC7010E941B018FE901
:100190009FE00197F1F700C000006AEAC7010E94E2
:1001A0001B0180E090E026960FB6F894DEBF0FBEEC
:1001B000CDBFDF91CF911F910F91FF90EF90DF9016
:1001C000CF9008951092C50083E38093C400E0ECC3
:1001D000F0E08081826080830895CF93DF93F8946C
:1001E0001092C50083E38093C400C0ECD0E0888106
:1001F0008260888310920003109201031092020320
:1002000010920304109204041092050440E051E09F
:100210006EEC70E083E093E00E947702188286E043
:100220008093C20088E98093C100789480E092E0D6
:10023000DF91CF910895DC01AC5FBD4F2C91FC01A3
:10024000E20FF11DED5FFE4F60832F5F2C93FC01E9
:10025000EB5FFD4F80818F5F8083E1ECF0E0808178
:100260008062808308958E5F9E4FFC018081089597
:100270008B5F9D4FFC01908120E031E0A901491B7B
:100280005109CA0108951F920F920FB60F921124BF
:100290000BB60F928F939F93AF93BF93EF93FF9300
:1002A0009091C600A1E0B3E08C91E82FF0E0E0501F
:1002B000FE4F90838F5F8C93E2E0F3E080818F5F4D
:1002C0008083FF91EF91BF91AF919F918F910F909C
:1002D0000BBE0F900FBE0F901F9018951F920F929C
:1002E0000FB60F9211240BB60F922F938F939F93FB
:1002F000EF93FF93809105048823D9F09091030434
:10030000E92FF0E0ED5FFC4F20812093C6009F5F56
:1003100090930304815080930504FF91EF919F9186
:100320008F912F910F900BBE0F900FBE0F901F90CB
:1003300018958091C1008F7D8093C100EECFAC01F4
:1003400077276150710984E616161706D4F4A0E0E9
:1003500020E030E0FA01E20FF31F90812181392F74
:1003600032233095292B932F9223292F2823209550
:10037000892B8223AF5F2A2F30E02617370754F3EB
:1003800008950895CF93DF93CDB7DEB7A6970FB644
:10039000F894DEBF0FBECDBF84E090E090930704D9
:1003A000809306040E94ED006C0180B3837C80BBC7
:1003B00081B38C6381BB8DE591E09A8789871B8629
:1003C0001C8689E491E09E878D871F8681E0888B5B
:1003D00085E291E09A8B898B1B8A82E08C8B86E088
:1003E00091E09E8B8D8B1F8A83E0888F8FB1982F31
:1003F0009C739E012B5D3F4F49018FB18C73382E4A
:10040000682E712C492E512CCE0101965C0182E0A0
:10041000E82EF12C93010E2C02C0359527950A94F5
:10042000E2F7C2010E2C02C0959587950A94E2F777
:100430008227932780FF43C0822F8170F50120FD22
:1004400054C01286F50180859185A285B38589A364
:100450009AA3ABA3BCA38FE99FE00197F1F700C07B
:10046000000065E5C6010E941B01EFE9FFE031973E
:10047000F1F700C000006AEAC6010E941B018E016C
:100480000F5D1F4FF80161918F01C6010E941B0192
:1004900080169106B9F764E070E0CE0181960E9463
:1004A0009F01682FC6010E941B018FE99FE0019701
:1004B000F1F700C000006AEAC6010E941B019FEF2D
:1004C000E91AF90AE4E0AE0EB11CF6E0EF16F10409
:1004D00009F0A0CF2FE738E381E021503040804081
:1004E000E1F700C00000932D88CF8287ABCFDC01FD
:1004F00001C06D9341505040E0F70895F894FFCF4C
:00000001FF
